:020000040802F0
:10000000C81C0024ED030208D18F020839870208BA
:10001000CD8F0208D522020829AB0208000000009B
:10002000000000000000000000000000A59502088C
:100030005528020800000000D58F0208A795020885
:100040000B0402080B0402080B0402080B0402084C
:100050000B0402080B0402080B0402080B0402083C
:100060000B0402080B0402080B0402080B0402082C
:100070000B0402080B0402080B040208D922020830
:100080000B0402080B0402080B0402080B0402080C
:100090000B0402080B0402080B0402080B040208FC
:1000A0000B0402080B0402080B0402080B040208EC
:1000B0000B0402080B0402080B0402080B040208DC
:1000C0000B0402080B0402080B0402080B040208CC
:1000D0000B04020819AB02080B0402080B04020807
:1000E0000B0402080B040208000000000B040208C5
:1000F0000B0402080B0402080B0402080B0402089C
:100100000B0402080B0402080B0402080B0402088B
:100110000B0402080B0402080B040208799702087A
:100120000B0402080B0402080B0402080B0402086B
:100130000B0402080B0402080B0402080B0402085B
:1001400000000000000000000000000000000000AF
:100150000B0402080B0402080B0402080B0402083B
:100160000B0402080B0402080B0402080B0402082B
:100170000B0402080B0402080B0402080000000034
:100180000B0402080B0402080B0402080B0402080B
:100190000B0402080B0402080B0402080B040208FB
:1001A0000B0402080B0402080B0402080000000004
:1001B0000B0402080B0402080B0402080B040208DB
:1001C0000B0402080B0402080000000000000000FD
:1001D00000000000000000000B0402080000000006
:1001E000000000000000000000000000000000000F
:1001F00000000000000000000B0402080B040208CD
:100200000B0402080B040208000000000B040208A3
:100210000B0402080B0402080B0402080B0402087A
:100220000B040208000000000B040208000000009C
:100230000B0402080B040208000000000B04020873
:100240000B0402080B0402080B0402080B0402084A
:100250000B0402080B0402080B0402080B0402083A
:100260000B0402080B0402080B0402080B0402082A
:100270000B0402080B0402080B0402080000000033
:100280000B0402080B0402080B0402080B0402080A
:10029000000000000B0402080B040208000000002C
:1002A000000000000B0402080B0402080B04020803
:1002B0000B0402080B0402080B0402080B040208DA
:1002C0000B0402080B0402080B04020800F002F8F9
:1002D00000F07DF80AA090E8000C82448344AAF163
:1002E0000107DA4501D100F072F8AFF2090EBAE861
:1002F0000F0013F0010F18BFFB1A43F0010318475A
:1003000028BE000078BE00000A444FF0000C10F830
:10031000013B13F0070408BF10F8014B1D1108BF83
:1003200010F8015B641E05D010F8016B641E01F823
:10033000016BF9D113F0080F1EBF10F8014BAD1C73
:100340000C1B09D16D1E58BF01F801CBFAD505E091
:1003500014F8016B01F8016B6D1EF9D59142D6D3EB
:1003600070470000103A24BF78C878C1FAD8520705
:1003700024BF30C830C144BF04680C60704700001F
:100380000023002400250026103A28BF78C1FBD89E
:10039000520728BF30C148BF0B60704766290BF079
:1003A000D185002070471FB50BF0C4FD00F050FC54
:1003B0000400002000210BF0F7FC401C60600020CE
:1003C00000210BF0DBFCE0601FBD10B510BD00F09C
:1003D0006BFD1146FFF7E7FF0BF068F901F00EF82F
:1003E00003B4FFF7F2FF03BC01F046F80A48804768
:1003F0000A4880470A480047FEE7FEE7FEE7FEE7B7
:10040000FEE7FEE7FEE7FEE7FEE7FEE705480649F2
:10041000064A074B704700005D2802086D960208E7
:10042000CD020208C8160024C81C0024C8180024E5
:10043000C818002453EA020C00F069802DE9F04B43
:100440004FF00006002B1FBFB3FA83F503FA05F443
:1004500024FA05F65E4012BF1643B2FA82F502FA9C
:1004600005F4C5F120051EBF22FA05FC44EA0C0480
:10047000203556EA044C4FEA144418BF641C4FF070
:1004800000084FF00009904271EB030C39D30029AA
:1004900019BFB1FA81F701FA07F6B0FA80F700FA4E
:1004A00007F6C7F120071EBF20FA07FC46EA0C0634
:1004B0002037B6FBF4FCA7EB0507103F07F01F0B36
:1004C000CBF120060CFA0BFB2CFA06F644BFB34620
:1004D0000026202FA4BF5E464FF0000B5BEA060CFF
:1004E00008BF4FF0010B19EB0B09ABFB027C48EB8B
:1004F0000608C01B06FB02CC0BFB03CC71EB0C0106
:10050000C1E70B46024641464846BDE8F08B13B5AD
:100510004FF000004FF00001AFF30080BDE81C4039
:10052000704700000FB41CB5074B06AA7B44694610
:100530000090059800F021FB0020694600F030FB98
:100540001CBC5DF814FB0000710600002DE9F041B1
:100550000E460446002020622046E168884730B3FA
:10056000252805D0D4E901219047206A401CF2E7F4
:10057000E168204600278847050018D0A5F1410012
:10058000192802D820354FF4006732462946204604
:100590002760FFF703FF40B1012804D0F61D26F0C5
:1005A00007060836D8E7361DD6E72846DAE7206A78
:1005B000BDE8F081032A40F2308010F0030C00F017
:1005C000158011F8013BBCF1020F624498BF11F88D
:1005D00001CB00F8013B38BF11F8013BA2F1040246
:1005E00098BF00F801CB38BF00F8013B11F00303BE
:1005F00000F02580083AC0F0088051F8043B083A22
:1006000051F804CBA0E80810F5E7121D5CBF51F8C3
:10061000043B40F8043BAFF30080D20724BF11F83D
:10062000013B11F801CB48BF11F8012B24BF00F8A2
:10063000013B00F801CB48BF00F8012B704710B513
:10064000203AC0F00B80B1E81850203AA0E81850CA
:10065000B1E81850A0E81850BFF4F5AF5FEA027C8B
:1006600024BFB1E81850A0E8185044BF18C918C0FA
:10067000BDE810405FEA827C24BF51F8043B40F89B
:10068000043B08BF7047D20728BF31F8023B48BF80
:1006900011F8012B28BF20F8023B48BF00F8012BBE
:1006A00070474FF000020429C0F0128010F0030CD4
:1006B00000F01B80CCF1040CBCF1020F18BF00F855
:1006C000012BA8BF20F8022BA1EB0C0100F00DB804
:1006D0005FEAC17C24BF00F8012B00F8012B48BF62
:1006E00000F8012B70474FF0000200B51346944606
:1006F0009646203922BFA0E80C50A0E80C50B1F17A
:100700002001BFF4F7AF090728BFA0E80C5048BF8D
:100710000CC05DF804EB890028BF40F8042B08BF2B
:10072000704748BF20F8022B11F0804F18BF00F827
:10073000012B704770477047704710B500F08CFA76
:10074000006810BD10B5044600F086FA046010BDC4
:1007500070472DE9FF4F0C461E464FF0FF378BB018
:10076000D2E90001DDF860800A908A46C1F30A559B
:1007700005B93D46002108464FF00000BAF1000FD0
:1007800000F4400005DA00EB80004FF4400101EA7C
:1007900050004FEA9059B9F1010F00DDB9460A98AF
:1007A00050EA4A000ED044F61050A5F2FF354543FA
:1007B0002F14B8F1000F1ED07542291E1EDDC9F19D
:1007C00000021CE0B8F1010F4FF0000001D0302111
:1007D00003E0F24305E02154401CB042FBDB30460D
:1007E0000022002121540B99C1F80880C1E90020A2
:1007F0000FB0BDE8F08FBD1B6D1CDEE74A4600DA86
:10080000694206A800F0DAFA06AB93E8070003ABEA
:1008100083E8070050460A9901F080F88DE8070048
:10082000A0F500501F3800900398002D0ADD42F219
:100830001F014A460844002303A90390684601F0BB
:100840002BFB09E0A0F500504A461F38002303A9FE
:100850000390684601F04AFB8DE807000004000C95
:1008600003D04FF0FF30410800E01046B8F1000F10
:1008700003D00022009215461EE0751E05D400F03C
:10088000EFF9303262556D1EF9D5B34601220843A7
:1008900002D000227F1C04E02078302801D1002201
:1008A0007F1E002A099784D01DE0112D07DA00F081
:1008B000D7F9303262556D1C50EA0102F5D1084378
:1008C00002D00098C8B10EE00021681E05E0235C4C
:1008D000625C63542254401E491C8142F7DBAB46E4
:1008E000A81B401E0990002004F80B000B98099AE1
:1008F000C0F80880C0E9002B7AE711264FF0000805
:1009000057E72DE9F04F88460446D21D22F0070133
:1009100091B0D1E90001CDE90A010AF007F90246D8
:100920000B98C00F01D02D2007E02068810701D56A
:100930002B2002E0202101EAC000032A099001D007
:10094000072A05DB03464146204600F0D7F90BE1B4
:100950002078800601D5E06900E00620B8F1650F37
:10096000814606D0B8F1660F18D0B8F1670F70D184
:1009700031E00020B9F1110F009001DB112301E0FB
:1009800009F101030AAA01A90CA8FFF7E2FEDDE9BB
:100990000C70002609F10105834647E001204B4613
:1009A00000904FF000470AAA01A90CA8FFF7D1FE5A
:1009B000DDE90DB00C995D46002610B909F1010082
:1009C0000D18B9EB050003D4C0F1FF3609F101059C
:1009D000A5EB09002BE0B9F1010F01DA4FF0010995
:1009E0000020B9F1110F0090484601DD112300E00D
:1009F00003460AAA01A90CA8FFF7ABFEDDE90C70BB
:100A00004D4600268346207800070AD4AB4500DA1D
:100A10005D4601A8012D04DD411911F8011C3029A2
:100A200007D04F4502DA17F1040F04DA012082469D
:100A30000FE06D1EEEE7002F02DCED1B3E4403E0ED
:100A4000781CA84200DD7D1CB81B00F1010A4FF0A4
:100A500000472078000703D4AA4501DB4FF0FF3A96
:100A60000021B7F1004F0DF143088DF8431024D059
:100A700002202B23002F01DA7F422D230A21021EA0
:100A8000A0F1010000DC5FB197FBF1FC97FBF1F2F4
:100A900001FB1C7C17460CF1300C08F801CDEEE789
:100AA000A8F1010003702188090501D5452100E066
:100AB0006521A0F1010800F8011C09980FA9A1EB1C
:100AC0000807FF1D00B10120411901EBEA70A1697F
:100AD0003844081A401EA0612078C00602D420467F
:100AE000AFF30080099828B1D4E901219047206A2A
:100AF000401C20622078C00622D52046AFF300803B
:100B00001EE0002E04DBB34502DD01A8805D00E09D
:100B10003020D4E901219047206A401C2062761CD5
:100B2000AAF101005FEA000A0AD100F091F8C0685A
:100B30000168405CD4E901219047206A401C206292
:100B4000281EA5F10105DCDC07E0D4E9012118F835
:100B5000010B9047206A401C2062381EA7F1010754
:100B6000F3DC2046AFF30080032011B041E6000023
:100B700001694A1C02610878704700B58FB0CDE961
:100B800001310021059105497944CDE90310114651
:100B90006846FFF7DBFC0FB000BD0000E5FFFFFF7C
:100BA0000A6802F8010B0A60704700000FB40023C6
:100BB00000B589B00CA900910B99CB60214B7B4407
:100BC0000693214B7B44079304236FF00042CDE949
:100BD00001321E4A7A446B460892024600200BF00E
:100BE00013FA09B05DF814FB70B506464FF0FF30FC
:100BF00015460C46324686B00091CDE901016946A2
:100C00000020049004A8FFF7D1FF024604982118A1
:100C100025B108B1084600E0204628600498002865
:100C20000DD0002A02DD0098884208D03246081B09
:100C300069460094CDE9010404A8FFF7B7FF06B0A8
:100C400070BD0000BB010000D301000013010000D3
:100C5000004870478416002400487047641600243A
:100C600030B5B0F10A024FEA900E71F100034EEA7E
:100C7000817EB0EB0E0061EB91014FEA101E4EEA4F
:100C8000017E10EB0E0041EB11114FEA102E4EEADF
:100C9000016E10EB0E0041EB11214FEA104E4EEAAF
:100CA000014E10EB0E0041EB1141401841F10001E3
:100CB0004FEAD00040EA41704FEAD10110EB8005C5
:100CC0004FEA810444EA907444EB01046D1944EB4B
:100CD0000404521BA3414FF0000348BF0A3200D561
:100CE00030BD401C41F1000130BD10B5044600F09C
:100CF00001F90068005D00F0010010BD2DE9F04130
:100D00001F46044603260168072A01F4006004DB3D
:100D100008B116A505E016A503E008B115A500E089
:100D200015A521F010002060A069C01EA0610FB1C0
:100D3000401EA0612046AFF300804FB1D4E90121ED
:100D400038469047206A401C2062C01C206206E0A2
:100D5000206AFAE7D4E9012115F8010B9047761EC5
:100D6000F8D22046AFF30080BDE8F0814E414E003E
:100D70006E616E00494E4600696E6600426842B17F
:100D8000016811F8013B23B1521EC0E90012184658
:100D900070470121C160881E704742685AB1C3681C
:100DA000016843B983688B4205D0491E521CC0E9D3
:100DB0000012002070474FF0FF3070472DE9F047D8
:100DC000814616468AB0354878440DC88DE80D0036
:100DD00032487844801C03AC0DC884E80D0041F60D
:100DE0009B300844372190FBF1F290FBF1F5A5F11F
:100DF000800501FB12041B3C02D56442012000E087
:100E00000020DFF898A080460027FA44AAF1BE0A25
:100E10000EE0E0070AD03246684607EB470101239F
:100E20000AEB810101F062F88DE8070064107F1C75
:100E3000002CEED1194F7F44AE3F19E0E80715D0E2
:100E400007EB04100DF1180A90E80E008AE80E0076
:100E5000C068F04201D1981908903246012306A9D2
:100E600003A801F043F803AB83E807006D10641C8E
:100E7000002DE3D14FF0010332466946B8F1000F6F
:100E800003A802D001F008F801E001F02FF8C9E949
:100E90000001C9F808200AB0BDE8F08744B300009B
:100EA00000487047641600247546FFF7F9FFAE4608
:100EB00005006946534620F00700854618B020B566
:100EC000FFF7A4FABDE820404FF000064FF00007FE
:100ED0004FF000084FF0000B21F00701AC46ACE8E2
:100EE000C009ACE8C009ACE8C009ACE8C0098D464F
:100EF0007047000010B5FFF7ABFE001D10BD00BF2E
:100F0000A9AE00002DE9FF4F06468BB00878FF28F8
:100F100006D0491C2D2805D000244FF0000908E018
:100F200000200CE00124F8E709EB8903491C00EBE1
:100F300043090878FF28F7D114B1C9F100008146B0
:100F4000107800252C46AA4629462D2801D02B28AA
:100F500004D1521C2D2813D0002082468B461078D5
:100F6000FF280FD04FF0000C0A21521CA5FB01787E
:100F700004FB018105FB0C11C5194BEB0104EEE7E5
:100F80000120EAE7002108464FF00000BAF1000F07
:100F900002D000EB80004008C0F38157012F01DD33
:100FA0004FF0FF370E9955EA040009EB01080BD00A
:100FB0004FF0020918F5FA7F16DA4FEACA70002FCF
:100FC000706008DD012007E04FEACA70C6E900B092
:100FD0000FB0BDE8F08F00203060FFF73DFEC0F895
:100FE00000901821084616E0B8F5FA7F18DD002FAA
:100FF00002DAF748784401E0F6487844D0E9001076
:10100000C6E9001040EACA707060FFF725FEC0F81C
:101010000090142108460FB0BDE8F04F0AF08FBFD2
:10102000002108464FF00000B8F10001099002DAF3
:10103000C7F1000200E03A4601DAC8F1000106A853
:10104000FFF7BCFE06AB93E8070003AB83E807009D
:1010500044F23E005BEA04010090584604D144F299
:101060001E012C465D460091210C0904014306D166
:101070000099240444EA15442D041039009104F029
:101080007F41014306D10099240244EA15642D02F0
:101090000839009104F07041014306D10099240100
:1010A00044EA15742D01091F009104F040410143E9
:1010B00006D10099A40044EA9574AD00891E009100
:1010C00004F00041084304D100986D196441401EAA
:1010D00000904FF001033A466846B8F1000FCDE9A1
:1010E000014503A902DD00F016FF01E000F0E9FE72
:1010F000BAF1000F04460D4601D084F000440021EF
:1011000008464FF00000099940F2FF77484010F080
:101110000C0F07D124F00040284303D0C4F30A5039
:10112000B84212D1FFF798FDC0F80090C4F30A50FE
:10113000B8420AD1A8487844D0E90010C6E90010A6
:1011400004F000410843706042E7C6E900543FE7FD
:101150002DE9FF4F1F464FF0000A4FF0FF3845467C
:1011600091B0D7E90146CDF83CA0FFF771FDC0680A
:101170000168405C1090B96912986D1C8847396A03
:10118000814688470028F6D1B9F1FF3F0AD0002EEA
:1011900024F4D06411DDB9F12B0F08D0B9F12D0F73
:1011A0000BD102E0404615B013E744F48064B969FE
:1011B00012986D1C8847761E8146600504A901D5EA
:1011C0002D2000E02B20002E01F1010B0DF1300845
:1011D0008DF810003FDDB9F1690F08D0B9F1490F62
:1011E00005D0B9F16E0F02D0B9F14E0F1CD13B46BC
:1011F00001A8009580E85002DDE912126FF00200AC
:101200000AF006FFC11CCED10EE0B96912986D1C20
:10121000884781461398761E44F4007405600F9841
:10122000401C002E0F9016DDB9F1300FEDD0B9F152
:10123000780F02D0B9F1580F0DD10F9801280AD1BB
:101240003B46CDE90054DDE91212001F02960AF078
:10125000DDFEC11CA7D1109989453ED144F0800420
:1012600006E01399681CAAF1010A44F400740860AE
:10127000B9696D1C1298761E884730288146F0D0D7
:101280002BE01099894505D1200603D4761E44F041
:10129000800418E0484609F0DBFD08B3761E0DF126
:1012A00023018B4544F4007408D2A9F130000BF8F7
:1012B000010B200607D5AAF1010003E0200602D4A5
:1012C0000AF101008246A00502D51399681C086046
:1012D000B96912986D1C88478146002ED1DC53E015
:1012E000002E51DDB9F1650F02D0B9F1450F4BD198
:1012F000A00549D5B9696D1C1298761E24F4407476
:101300008847002E81460CDD2B2804D0B9F12D0F23
:1013100007D144F48074B96912986D1C8847761E11
:101320008146E00501D52D2100E02B2108F8011BA5
:10133000CDF8008021E0761E0DF13901884544F496
:1013400000740CD2A9F1300010F0FF0088F8000002
:1013500002D10099884509D908F1010806E0E005A5
:1013600001D51E4801E042F20F708246B969129819
:101370006D1C8847814613980560002E04DD4846A1
:1013800009F066FD0028D6D1F96912988847FF2038
:1013900053468BF8000088F8000000200A900B905C
:1013A00004AA0CA90AA8FFF7ADFDA00502D46FF0AE
:1013B0000100F8E614F0240F12D0E0071CD13868C1
:1013C000DDE90A12031D3B600068C0E9001213E06A
:1013D00088B100007AB100003EB00000F1D8FFFFF4
:1013E0000AA9684609F0CCFCE00705D13868009AE4
:1013F000011D3960006802602846D4E610B5044635
:10140000AFF300802046BDE81040FEF7E9BF0000C2
:101410004FF0013C50F8042B51F8043B9A4215D18F
:10142000A2EB0C03934313EACC130BD150F8042B1B
:1014300051F8043B9A4209D1A2EB0C03934313EAFF
:10144000CC13E7D04FF00000704700BFD01A01BAAC
:10145000B1FA81F101F0180122FA01F0CB40C1F19B
:101460002001DBB2C0B2C01A2CFA01F3D11A9143A9
:1014700011EAC311E6D1704701491820ABBEFEE75F
:10148000260002002DE9FF4F1F464FF03C0987B0B0
:101490004FF00042DDE9141001F10108DDF858A019
:1014A00002EA40500390002005908346054604461A
:1014B0000490B969461E08988847AAF1010A02906B
:1014C000BAF1000F3BDD02982E2815D0102100F054
:1014D00017FA00282EDB4FF0010B0599014317D0B6
:1014E000B9F1000F0BDB4A46C11700F0F6F90543CE
:1014F0000C43A9F1040905E0012004900BE008B1B8
:1015000045F0010501200590049820B9361D02E040
:10151000049800B1361FB969089808F10108884796
:10152000BBF1000FAAF1010A0290C9D00999C1F8D4
:101530000080C5E70298702808D0502806D0F969C5
:1015400008988847BBF1000F14D04FE000200290AC
:101550000120BBF1000F049009D0B969089808F187
:1015600001088847AAF10109B9F1000F07DCF96900
:10157000089888476FF001000BB0BDE8F08F2B286A
:1015800004D02D280CD14FF0FF300490B969089891
:1015900008F101088847A9F10109B9F1000FE6DD5A
:1015A000411CE4D00A2100F0ABF90028DFDB0299EE
:1015B00008F1010801EB810100EB41000290B969DB
:1015C000089888470A2100F09BF9099AA9F10109B6
:1015D000B9F1000FC2F8008001DD0028E7DAF969EF
:1015E000089888470499029800FB016655EA0400B0
:1015F00004D004F04041090002D006E0039898E0CE
:10160000A40044EA9574AD00B61E04F00041080041
:1016100002D16D196441761E159810F0240F03D085
:101620004FF00B095C4803E04FF028096FF07D0094
:101630008246564507DAAAEB06018944B9F1410F03
:1016400001DD4FF0410901200021A9F1010200F064
:1016500044F9024628400B462140084301D00121AD
:1016600000E00021501E029143F1FF31284021404B
:10167000084301D0012000E000200299834651EA8E
:101680000B014FD0002108464FF00000039900F4F1
:10169000400039B100EB80004FF4400100EBD07006
:1016A00001EA60008015012802DD4FF0FF3000E004
:1016B00013D0401C36D0029860B3BBF1000F0CD1A0
:1016C0004A460120002100F008F928402140084343
:1016D00001D0012000E00020E0B101204A460021B5
:1016E00000F0FBF8034640190A4661412D1A8C416F
:1016F00011D3B9F1400F09DD159810F0240F02D075
:10170000AAF1340603E0AAF1170600E0761C0025D2
:101710004FF0004406E05B1E42F1FF3220EA030571
:1017200021EA0204CAF10100B04206DA1B4903981B
:1017300008430190002000900EE0039AC4F3D321E7
:10174000E80A0A43164940EA44500A433146CDE9C3
:101750000002684609F020FB159810F0240F0BD00A
:101760001598C00715D13868DDE90012031D3B60EC
:101770000068C0E900120CE002A8694609F000FB0D
:101780001598C00705D13868029A011D39600068B4
:1017900002604046F0E6000002FCFFFF0000F07F20
:1017A0000000F03F2DE9FF4F92461D4685B04FF0F7
:1017B0000041DDE9124BDDE914727F1E01EA4B5056
:1017C000414940F0FF4940EA0108002122F0200091
:1017D0004928049102D04E2828D04CE03BA0012695
:1017E00007C88DE80700A9690698641C88477F1E12
:1017F000014606D41DF8060018B121F020018142EF
:101800000BD0E96906988847032E34D0082E32D0D1
:101810006FF0010009B0BDE8F08F761C032E01D0F7
:10182000082EE0D1601CCAF80000DCE7A969069820
:10183000641C88477F1E2AD420F02000412826D12E
:10184000A9690698641C88477F1E20D420F02000D8
:101850004E281CD1A9690698641C88477F1E48F44D
:10186000002849F48009CAF8004001D4282806D08D
:10187000E969069888475FEACB7012D022E0A9692F
:101880000698641C88477F1E01D4002803DAE969A2
:1018900006988847BCE72928F1D1641CCAF80040A3
:1018A000E9E71BF0240F07D028680499031D2B607B
:1018B0000068C0E9001805E02868021D2A60006879
:1018C000C0F800902046A5E70000F07F494E464949
:1018D0004E495459000000007047B2F120030AD568
:1018E000C2F1200301FA02F120FA03F300FA02F038
:1018F00041EA0301704700FA03F14FF0000070471E
:101900003A2800D2303820F02002412A01D3A2F137
:101910003700884201D34FF0FF3070475FEA400C38
:1019200008BF91F0000F4FEA8C234FEAC12243EA2F
:1019300051514FEA1C5018BF00F5F0404FEA3000FB
:1019400018BF41F000415FEA6C5C00F02980BCF1F7
:10195000FF3F08BF40F080407047130C06BF1204E1
:101960004FF0100C4FF0000C130E04BF12020CF1DC
:10197000080C130F04BF12010CF1040C930F04BFE9
:1019800092000CF1020CD30F04BF52000CF1010CB9
:1019900011464FF00002A0F11F00A0EB0C007047B1
:1019A00011F0004F08BF704731F000413FF4D5AF50
:1019B0000B0C06BF09044FF0100C4FF0000C0B0E7F
:1019C00004BF09020CF1080C0B0F04BF09010CF154
:1019D000040C8B0F04BF89000CF1020CCB0F04BF69
:1019E00049000CF1010CCCF12003A0EB0C0022FA11
:1019F00003F302FA0CF241EA030100F1010070471F
:101A000020F07F4C80EA030023F07F47ACEB070314
:101A100003F57C5300F0004003F1FF032DE98049FA
:101A20004FEA154B09B44FEA144325EA0B4E24EA5A
:101A300003480FF2042606EB132749083E785FEAB5
:101A4000320203FB0667C7F5000707FB06F64FEAFD
:101A500054374FEAD64606F1020607FB066CCCF176
:101A6000005C4FEA1C472CEA074C07FB06F40CFB12
:101A700006F504EB15464FEA961634BF00204FF0EA
:101A800000404FEAD13706FB07FC4FEA1C4C0CFB29
:101A90000BF7D21B03FB0CF761EB07010CFB0EF7F6
:101AA000B0EB074072EB17420CFB08F734BFA2EB18
:101AB0000742B2EB074261EB17414FEA0C444FEA91
:101AC000910706FB07FC4FEA1C4C0CFB0BF7B0EB35
:101AD000C74072EB573203FB0CF734BFA2EBC7428F
:101AE000B2EBC74261EB57310CFB0EF7B0EBC7000E
:101AF00072EB57720CFB08F734BFA2EBC702B2EBD4
:101B0000C70261EB5771039F4FEA816141EA92116D
:101B100004EBCC044FEAD1374FEA826206FB07FCA4
:101B200042EA90124FEA80604FEA1C4C0CFB0BF724
:101B3000D21B03FB0CF761EB07010CFB0EF7B0EBBC
:101B4000074072EB17420CFB08F734BFA2EB0742C9
:101B5000B2EB074261EB17414FEA8C554FEA910710
:101B600004EB9C2406FB07FC4FEA1C4C0CFB0BF718
:101B7000B0EBC74072EB573203FB0CF734BFA2EB5C
:101B8000C742B2EBC74261EB57310CFB0EF7B0EB2B
:101B9000C70072EB57720CFB08F734BFA2EBC70209
:101BA000B2EBC70261EB577115EB4C254FEA81612F
:101BB00041EA92114FEA82624FEAD13742EA90122B
:101BC00006FB07FC44F100044FEA80604FEA1C4C1E
:101BD0000CFB0BF7D21B03FB0CF761EB07010CFBB3
:101BE0000EF7B0EB074072EB17420CFB08F734BF5F
:101BF000A2EB0742B2EB074261EB174115EB1C1554
:101C00004FEA813141EA92414FEA823242EA904200
:101C10004FEA80304FEA0C7644F1000448EA03436F
:101C20004EEA0B484FF0000EB2EB080C71EB0307C5
:101C300024BF624639464EEB0E0E4FF0000B0018E3
:101C4000524149414BEB0B0BB2EB080C71EB030714
:101C50007BF1000B24BF624639464EEB0E0E4FF06F
:101C6000000B0018524149414BEB0B0BB2EB080C37
:101C700071EB03077BF1000B24BF624639464EEB44
:101C80000E0E51EA020718BF46F0010616EB0E765B
:101C900055F1000254F1000103D5BDE88901BDE80A
:101CA0000088BDE88901BDE80048B619524141EB02
:101CB0000101A3F10103704780807F7E7D7C7B7AE8
:101CC0007978777676757473727171706F6E6E6DE8
:101CD0006C6C6B6A6A69686867666665646463638E
:101CE00062616160605F5F5E5E5D5D5C5C5B5B5A14
:101CF0005A59595858575756565555555454535381
:101D000052525251515050504F4F4F4E4E4D4D4DDB
:101D10004C4C4C4B4B4B4A4A4A4949494848484726
:101D20004747474646464545454444444443434364
:101D3000434242424241414146EA0646A3F57053BE
:101D40004FEA164646EA42564FEAD22242EA41524A
:101D500010B54FEAD121A3F1010300F02FF820F0D4
:101D6000004000F1020C00F0004701EB005011466A
:101D7000BCF5006F40EA070000D210BDBAF1000FB9
:101D80000AD01CB503B44FF004004FF004014FF02B
:101D900000000FBCBDE810404FF00001BBF1010F87
:101DA000B9BF04484FF0FF310348002140EA070063
:101DB00010BD00BFFFFFEF7F0000F07F002B9C46AF
:101DC00030D477002BD01CB54FEA370703B44FF05F
:101DD00010004FF01001BAF1000F06D0BCF1000F57
:101DE000DCBF40F0080040F008014FF000000FBCDD
:101DF000BDE810400BF1010BBBF1010F08BF5FEA1A
:101E0000170722BF12F1010211F101014FF0004149
:101E100043F1000300F0004043EA00007047F9D3AB
:101E20005708D0E746EA064613F1400F4FEA164638
:101E30001FDD13F1200FDFBF16430A4600212033B8
:101E40005B42BED0C3F1200746EA064602FA07F716
:101E50004FEA164646EA0706C3F1200722FA03F2C4
:101E600001FA07F721FA03F14FF0000342EA0702F3
:101E7000A7E746EA020646EA06464FEA164646EA5B
:101E80000106BCBF46EA0646360C4FF000034FF091
:101E900000024FF0000194E72DE9804C9A469346EA
:101EA00070B491E8380007C831EA400C48BF34EA02
:101EB000430C03D5FFF7A4FDFFF780FFF0BCBDE89E
:101EC000008C2DE9804C9A46934670B491E8380016
:101ED00007C831EA400C48BF34EA430C03D5FFF78A
:101EE0008FFDFFF729FFF0BCBDE8008C2DE9804C89
:101EF0009A46934670B491E8380007C810F0804FB6
:101F000008BF13F0804F03D100F01AF8FFF756FF17
:101F1000F0BCBDE8008C2DE9804C9A46934670B425
:101F200091E8380007C810F0804F08BF13F0804FC9
:101F300003D100F005F8FFF7FFFEF0BCBDE8008C10
:101F400020F07F4780EA030023F07F4C07EB0C036F
:101F5000A3F57C5300F00040A3F1FE0392F0000FC4
:101F600000F0B38095F0000F00F077802DE9014973
:101F70004FEA11404FEA144621EA004800FB06FCF4
:101F800024EA064708FB06F607FB08F800FB07F7FC
:101F900018EB06484CEB164C4FEA124B18EB07486F
:101FA0004FEA15464CEB174022EA0B4E0BFB06FCA2
:101FB00025EA06470EFB06F607FB0EFE0BFB07F7AE
:101FC0001EEB064E4CEB164C4FF000061EEB074E78
:101FD0004CEB174B18EB0B0840F1000018EB0E0B05
:101FE00058EB000840F100008F1A4FF000013CBF91
:101FF000C943661B14BFB5EB040C00213CBFC943A9
:10200000F61B4FEA17444EEA8E0E27EA04454FEAC4
:102010001C4704FB07622CEA074C05FB07F70CFB87
:1020200005F604FB0CFC16EB074642EB174216EBD9
:102030000C4642EB1C421BEB060658EB02024141E8
:1020400046EA9E0601D5BDE80189B619524141EB29
:102050000101A3F10103BDE801894FEA14454FEAEC
:10206000114724EA054621EA074C05FB07F406FB65
:1020700007F70CFB06F105FB0CFC11EB074144EBE9
:1020800017444FEA124711EB0C4144EB1C4422EA7F
:10209000074C05FB07F206FB07F70CFB06F605FBF2
:1020A0000CFC16EB074642EB174216EB0C4642EBD4
:1020B0001C456A1854F1000148BF7047B6195241D7
:1020C00041EB0101A3F10103704795F0000F37D0F8
:1020D0004FEA11424FEA144721EA024624EA074C2C
:1020E00002FB07F106FB07F70CFB06F402FB0CFCF6
:1020F00014EB074441EB17414FEA154714EB0C442E
:1021000041EB1C4125EA074C02FB07F506FB07F7EC
:102110000CFB06F602FB0CFC16EB074645EB1745DD
:1021200016EB0C4645EB1C42121951F1000148BF59
:102130007047B619524141EB0101A3F10103704709
:102140004FEA14454FEA114724EA054621EA074CB5
:1021500005FB07F106FB07F70CFB06F24FF0000644
:1021600005FB0CFC12EB074241EB174112EB0C4252
:1021700051EB1C4148BF7047921841EB0101A3F19C
:102180000103704710B500214F4800780A285ADA39
:10219000002051E000EB80024C4B03EB420212683E
:1021A000C0EBC0034A4C04EB8303B3F90E301A446E
:1021B00000EB8003454C04EB43031A6000EB800204
:1021C000234603EB42029288C0EBC003404C04EB71
:1021D00083031B8A1A4412B200EB80033B4C04EBCE
:1021E00043039A8000EB8002234603EB4202D2882D
:1021F000C0EBC003364C04EB83035B8A1A4412B273
:1022000000EB8003314C04EB4303DA8000EB8002E7
:10221000234603EB42021289C0EBC0032C4C04EBB3
:1022200083039B8A1A4412B200EB8003274C04EB11
:1022300043031A81421CD0B20828ABDB2248007845
:10224000401C214A1070204800780A2839D100200B
:1022500031E000EB80021D4B03EB4202126800EB01
:1022600080031A4C04EB43031A6000EB8002234600
:1022700003EB4202B2F9042000EB800304EB4303BA
:102280009A8000EB8002234603EB4202B2F906205B
:1022900000EB800304EB4303DA8000EB800223466B
:1022A00003EB4202B2F9082000EB800304EB430386
:1022B0001A81421CD0B20828CBDB0020024A1070E1
:1022C0000121084610BD000057000024D40500205D
:1022D0007404002000BFFEE710B5024801F09EF82C
:1022E00010BD0000EC1500240146374A08689042F2
:1022F00049D0354A18320868904244D0324A3032C8
:10230000086890423FD0304A4832086890423AD03C
:102310002D4A60320868904235D02B4A78320868DE
:10232000904230D0284A9032086890422BD0264AFA
:10233000A8320868904226D0244A0868904222D0E9
:10234000224A1832086890421DD0204A303208686C
:10235000904218D01D4A48320868904213D01B4A58
:102360006032086890420ED0184A7832086890426D
:1023700009D0164A90320868904204D0134AA83215
:102380000868904201D1012000E00020B0B10A7835
:10239000103A1823B2FBF3F000F007020C4B9A5CE2
:1023A000CA65032805D90A686FF30902121D8A65F8
:1023B00003E00A686FF309028A6503E0086820F009
:1023C000FF008865886D70471000024010040240CD
:1023D00044C0020810B502682B4C0368A34222D007
:1023E000294C14340368A3421DD0274C28340368B9
:1023F000A34218D0244C3C340368A34213D0224C8F
:1024000050340368A3420ED01F4C64340368A342C7
:1024100009D01D4C78340368A34204D01A4C8C3484
:102420000368A34201D1012300E000238BB10378AC
:10243000083B1424B3FBF4F1144B03EB8103036654
:10244000124B8033436601F01F040123A3408366CF
:1024500018E00378103B1824B3FBF4F10C4B9A42BC
:1024600004D80B4BA83B9A4200D30831094B03EB2D
:1024700081030366074B8033436601F01F04012389
:10248000A340836610BD000008540258005802584B
:10249000B8040240000802400179A9B3082940D8D5
:1024A000204B02689A4222D01E4B143302689A4293
:1024B0001DD01C4B283302689A4218D0194B3C336C
:1024C00002689A4213D0174B503302689A420ED0DA
:1024D000144B643302689A4209D0124B7833026875
:1024E0009A4204D00F4B8C3302689A4201D10122E8
:1024F00000E000224AB14A1E0B4B03EB8202C26687
:10250000094A4032026708E00BE04A1E074B03EB22
:102510008202C266054A403202674A1E0123934086
:102520004367704708540258005902580009024096
:10253000014600208A69D2B98A6A32B1012A0DD0D7
:10254000022A03D0032A10D10EE000BFCA6A02F0AB
:102550008072B2F1807F00D1012007E0CA6AB2F137
:10256000C07F00D1012001E000E000BF36E08A69B1
:10257000B2F5005F1BD18A6A32B1012A07D0022A64
:1025800003D0032A11D10AE000BF01200EE0CA6A7D
:1025900002F08072B2F1807F00D1012006E0CA6AA9
:1025A000B2F1C07F00D1012000E000BF16E08A6ACE
:1025B00032B1012A05D0022A04D0032A0CD103E04B
:1025C00000BF00BF012008E0CA6A02F08072B2F1C9
:1025D000807F00D1012000E000BF00BF70470000F5
:1025E000F0B5856D846D984F0668BE4270D0964FE9
:1025F00018370668BE426BD0934F30370668BE422C
:1026000066D0914F48370668BE4261D08E4F603722
:102610000668BE425CD08C4F78370668BE4257D001
:10262000894F90370668BE4252D0874FA837066858
:10263000BE424DD0854F0668BE4249D0834F183701
:102640000668BE4244D0814F30370668BE423FD054
:102650007E4F48370668BE423AD07C4F60370668E6
:10266000BE4235D0794F78370668BE4230D0774FBA
:1026700090370668BE422BD0744FA8370668BE421A
:1026800026D0734F0668BE4222D0714F14370668B9
:10269000BE421DD06E4F28370668BE4218D06C4F20
:1026A0003C370668BE4213D0694F50370668BE42B9
:1026B0000ED0674F64370668BE4209D0644F783742
:1026C0000668BE4204D0624F8C370668BE4201D114
:1026D000012600E000263EB1D0E919767E60C66E84
:1026E00016B1D0E91C767E60574F0668BE4249D0CD
:1026F000554F18370668BE4244D0534F30370668EE
:10270000BE423FD0504F48370668BE423AD04E4F87
:1027100060370668BE4235D04B4F78370668BE42F8
:1027200030D0494F90370668BE422BD0464FA8376D
:102730000668BE4226D0454F0668BE4222D0434FAF
:1027400018370668BE421DD0404F30370668BE427B
:1027500018D03E4F48370668BE4213D03B4F603713
:102760000668BE420ED0394F78370668BE4209D09F
:10277000364F90370668BE4204D0344FA8370668FB
:10278000BE4201D1012600E00026DEB190F85C6077
:1027900006F01F073F26BE40AE600668366826F486
:1027A000802607683E60066873608668402E04D104
:1027B0000668B2600668F16044E00668B1600668C9
:1027C000F2603FE0224F0668BE4222D0204F14370D
:1027D0000668BE421DD01E4F28370668BE4218D07C
:1027E0001B4F3C370668BE4213D0194F503706685E
:1027F000BE420ED0164F64370668BE4209D0144F51
:1028000078370668BE4204D0114F8C370668BE4246
:1028100001D1012600E00026A6B190F85C6006F028
:102820001F070126BE406660066873608668402EFA
:1028300004D10668B2600668F16003E00668B16022
:102840000668F260F0BD0000100002401004024073
:1028500008540258704772B600BFFEE70748006888
:1028600040F002000549086000BF044808380068CD
:1028700000F400500028F8D0704700000C480258BF
:1028800010B501F001037BB1084BDB6823F4E6636C
:10289000064CE36042F0040343EA002343F0800364
:1028A000E4682343014CE36010BD000000200052A7
:1028B00001F0010272B1084AD26822F03002064BE0
:1028C000DA601A46D2680243DA601A46D26842F0E9
:1028D0008802DA6070470000002000522DE9F041C4
:1028E00004460D460427002602F098F980460BE0C6
:1028F000601C48B102F092F9A0EB0800A04200D899
:1029000014B90320BDE8F081124800693840B8428C
:10291000EED0012D04D10F4800690F4900EA0106ED
:1029200026F0004040B10D48806930430B49886172
:10293000084846610120E5E7012D09D105480069F5
:1029400000F48030B0F5803F02D12804014948618D
:102950000020D7E7002000520000EE1758040020A6
:1029600010B557212648FDF7BEFE57212548FDF733
:1029700098FEFFF707FC012841D123480078401C4E
:1029800021490870502221491D48801DFDF712FE83
:1029900064201D49087045F2AA50194908801C4856
:1029A0000068C1F802001A480068401C1849086015
:1029B00000200AE0124991F85620891D095C114453
:1029C0000F4A82F85610411CC8B25028F2DB0C495D
:1029D000D1F8020009F0A4F9094991F85610084409
:1029E000074981F8560057220648FDF7E3FD5721B5
:1029F000044806F07DF850210448FDF774FE10BD30
:102A0000240600200000022455000024D4050020E4
:102A10000400002410B510212B48FDF742FE1021C0
:102A20002A48FDF73EFE2A480078401C28490870D5
:102A300008460078642846DB642008704AF6552072
:102A4000214908802348D0ED000AB0EE600A881CB6
:102A500008F002FC1F48D0ED010AB0EE600A1A48E7
:102A6000401D08F0F9FB1B48D0ED020AB0EE600AE9
:102A70001548083008F0F0FB002009E01249897B76
:102A8000114A921C125C51400F4A9173411CC8B20A
:102A90000928F3DB104801780068401C0E4A1060DA
:102AA000C8B2094948730846807B497B48400649BB
:102AB0008873F020C87310220448FDF77BFD1021B5
:102AC000024806F015F810BD7B0600200000022425
:102AD0005400002428000020040000241FB500201A
:102AE000009001900290039017212A48FDF7D9FD2C
:102AF00017212948FDF7D5FD28480078401C2749B3
:102B0000087008460078642843DB6420087045F2AA
:102B1000AA502049088022480068C1F802002048D5
:102B20000068401C1E4908601E4890ED060A8DEDA5
:102B3000030A90ED000A8DED000A90ED010A8DED7B
:102B4000010A90ED020A8DED020A00200DE0114904
:102B5000897D1DF8002011440E4A91751DF8002052
:102B60000C49891D0A54411CC8B21028EFDB0949E1
:102B7000D1F8020009F0D4F80649897D08440549D6
:102B8000887517220448FDF715FD1721024805F046
:102B9000AFFF1FBD8B06002000000224530000245D
:102BA00004000024280000202DE9F041044602F032
:102BB00035F8804614B90120BDE8F08194F835005D
:102BC000022808D08020606500BF002084F834000F
:102BD00000BF0120F0E7FE492068884249D0FC4947
:102BE00018312068884244D0F94930312068884241
:102BF0003FD0F7494831206888423AD0F4496031E3
:102C00002068884235D0F24978312068884230D037
:102C1000EF499031206888422BD0ED49A8312068D7
:102C2000884226D0EB492068884222D0E9491831F1
:102C3000206888421DD0E74930312068884218D08A
:102C4000E44948312068884213D0E2496031206865
:102C500088420ED0DF4978312068884209D0DD49AA
:102C600090312068884204D0DA49A831206888422F
:102C700001D1012000E0002068B12068006820F048
:102C80001E00216808602068406920F080002168EB
:102C90004861256806E02068006820F00E00216881
:102CA00008602568CA492068884270D0C849183130
:102CB000206888426BD0C64930312068884266D08F
:102CC000C34948312068884261D0C14960312068D9
:102CD00088425CD0BE4978312068884257D0BC49D0
:102CE00090312068884252D0B949A8312068884282
:102CF0004DD0B8492068884249D0B649183120687B
:102D0000884244D0B3493031206888423FD0B1492D
:102D10004831206888423AD0AE4960312068884204
:102D200035D0AC4978312068884230D0A9499031FB
:102D3000206888422BD0A749A8312068884226D035
:102D4000A5492068884222D0A349143120688842CE
:102D50001DD0A14928312068884218D09E493C31B5
:102D60002068884213D09C495031206888420ED098
:102D7000994964312068884209D0974978312068A0
:102D8000884204D094498C312068884201D10120C6
:102D900000E0002028B1206E006820F48070216ED1
:102DA00008608B492068884249D0894918312068D9
:102DB000884244D086493031206888423FD08449D7
:102DC0004831206888423AD0814960312068884281
:102DD00035D07F4978312068884230D07C499031A5
:102DE000206888422BD07A49A8312068884226D0B2
:102DF00078492068884222D0764918312068884274
:102E00001DD0744930312068884218D0714948314A
:102E10002068884213D06F496031206888420ED004
:102E20006C4978312068884209D06A49903120681D
:102E3000884204D06749A8312068884206D12068BA
:102E4000006820F001002168086005E02068006843
:102E500020F001002168086011E001F0DFFEA0EB26
:102E6000080005280BD920206065032084F8350070
:102E700000BF002084F8340000BF01209CE62868D1
:102E800000F001000028E8D151492068884249D06B
:102E90004F4918312068884244D04D49303120686C
:102EA00088423FD04A494831206888423AD0484950
:102EB00060312068884235D04549783120688842A1
:102EC00030D043499031206888422BD04049A83106
:102ED0002068884226D03F492068884222D03D4958
:102EE0001831206888421DD03A4930312068884224
:102EF00018D0384948312068884213D035496031AC
:102F0000206888420ED0334978312068884209D041
:102F1000304990312068884204D02E49A831206879
:102F2000884201D1012000E0002040B1A66D94F854
:102F30005C0000F01F013F208840B06007E0A76DF3
:102F400094F85C0000F01F0101208840786020495F
:102F50002068884276D01E4918312068884271D096
:102F60001B493031206888426CD0194948312068AB
:102F7000884267D0164960312068884262D014497F
:102F80007831206888425DD01149903120688842AC
:102F900058D00F49A8312068884253D00D49206885
:102FA00088424FD00B491831206888424AD00949DD
:102FB00030312068884245D006494831206888422F
:102FC00040D004496031206888423BD0014905E087
:102FD0001000024010040240085402587831206862
:102FE00088422FD02549206888422BD023491831A8
:102FF0002068884226D022492068884222D0204971
:103000001431206888421DD01D492831206888422B
:1030100018D01B493C312068884213D018495031E0
:10302000206888420ED0164964312068884209D051
:10303000134978312068884204D011498C312068C6
:10304000884201D1012000E0002068B1D4E91910C4
:103050004860E06E40B1E06E006820F48070E16E80
:103060000860D4E91C104860012084F8350000BFD6
:10307000002084F8340000BF00BF9DE5A00402409A
:103080000854025870B504460CB9012070BD94F87C
:103090003500022803D0802060650120F6E7DC4976
:1030A0002068884249D0DA4918312068884244D0E3
:1030B000D7493031206888423FD0D549483120680F
:1030C00088423AD0D24960312068884235D0D04910
:1030D00078312068884230D0CD49903120688842CC
:1030E0002BD0CB49A8312068884226D0C949206816
:1030F000884222D0C7491831206888421DD0C5496E
:1031000030312068884218D0C2494831206888424E
:1031100013D0C0496031206888420ED0BD49783153
:103120002068884209D0BB4990312068884204D089
:10313000B849A8312068884201D1012000E0002070
:10314000F0B3042084F83500B149206888424BD0A0
:10315000AF4918312068884246D0AD4930312068E7
:10316000884241D0AA494831206888423CD0A849C9
:1031700060312068884237D0A5497831206888427C
:1031800032D0A3499031206888422DD0A049A8317F
:103190002068884228D09F492068884224D09D49D1
:1031A0001831206888421FD09A49303120688842FF
:1031B0001AD0984948312068884215D0954900E0D6
:1031C00020E06031206888420ED092497831206832
:1031D000884209D08F4990312068884204D08D49B7
:1031E000A8312068884206D12068006820F00100DC
:1031F0002168086009E12068006820F0010021686A
:10320000086002E12068006820F00E002168086074
:103210007F492068884249D07D491831206888421A
:1032200044D07B493031206888423FD078494831CA
:10323000206888423AD0764960312068884235D08B
:10324000734978312068884230D0714990312068C4
:1032500088422BD06E49A8312068884226D06D491B
:103260002068884222D06B491831206888421DD0DE
:10327000684930312068884218D066494831206852
:10328000884213D063496031206888420ED061497A
:1032900078312068884209D05E49903120688842A0
:1032A00004D05C49A8312068884206D120680068B3
:1032B00020F001002168086005E02068006820F027
:1032C00001002168086052492068884270D0504946
:1032D0001831206888426BD04D49303120688842CF
:1032E00066D04B4948312068884261D048496031F6
:1032F000206888425CD0464978312068884257D09F
:10330000434990312068884252D04149A831206811
:1033100088424DD03F492068884249D03D49183104
:103320002068884244D03B493031206888423FD0F1
:1033300038494831206888423AD03649603120689F
:10334000884235D0334978312068884230D03149BD
:103350009031206888422BD02E49A83120688842BD
:1033600026D02D492068884222D02B49143120686C
:1033700088421DD0284928312068884218D0264923
:103380003C312068884213D023495031206888425C
:103390000ED0214964312068884209D01E49783115
:1033A0002068884204D01C498C312068884201D1B1
:1033B000012000E00020D8B1206E006820F4807069
:1033C000216E0860A56D94F85C0000F01F010120DB
:1033D00088406860D4E919104860E06E40B1E06E42
:1033E000006820F48070E16E0860D4E91C10486029
:1033F000012084F8350000BF002084F8340000BFAD
:10340000206D10B12046216D884700203EE6000067
:103410001000024010040240085402582DE9F84FF1
:10342000044600200090FE4800684FF41651B0FB9F
:10343000F1FAA66DD4F858803768D8F80090F949A9
:103440002068884249D0F74918312068884244D022
:10345000F4493031206888423FD0F2494831206831
:1034600088423AD0EF4960312068884235D0ED4932
:1034700078312068884230D0EA499031206888420B
:103480002BD0E849A8312068884226D0E649206838
:10349000884222D0E4491831206888421DD0E24990
:1034A00030312068884218D0DF494831206888428E
:1034B00013D0DD496031206888420ED0DA49783176
:1034C0002068884209D0D84990312068884204D0C9
:1034D000D549A8312068884201D1012000E00020B0
:1034E00000287DD094F85C0000F01F01082088407F
:1034F0003840002868D0CB492068884249D0C94963
:1035000018312068884244D0C6493031206888424A
:103510003FD0C4494831206888423AD0C14960311F
:103520002068884235D0BF4978312068884230D041
:10353000BC499031206888422BD0BA49A831206814
:10354000884226D0B8492068884222D0B64918312E
:10355000206888421DD0B44930312068884218D094
:10356000B14948312068884213D0AF4960312068A2
:1035700088420ED0AC4978312068884209D0AA49E7
:1035800090312068884204D0A749A8312068884239
:1035900004D12068006800F0040003E0206800689F
:1035A00000F0080080B12068006820F00400216865
:1035B000086094F85C0000F01F0108208840B060AB
:1035C000606D40F00100606594F85C0000F01F0140
:1035D000012088403840E8B392492068884200E0E2
:1035E000B7E24BD08F4918312068884246D08D49C8
:1035F00030312068884241D08A4948312068884269
:103600003CD0884960312068884237D0854978317C
:103610002068884232D083499031206888422DD07A
:103620008049A8312068884228D07F492068884294
:1036300024D07D491831206888421FD07A49303122
:10364000206888421AD0784948312068884215D0CD
:10365000754900E026E06031206888420ED072494A
:1036600078312068884209D06F49903120688842BB
:1036700004D06D49A8312068884204D1206840698F
:1036800000F0800002E020680068002050B194F84B
:103690005C0000F01F0101208840B060606D40F0C8
:1036A0000200606594F85C0000F01F01042088406F
:1036B0003840E8B35B49206888424BD059491831FB
:1036C0002068884246D0574930312068884241D02E
:1036D00054494831206888423CD0524960312068C2
:1036E000884237D04F4978312068884232D04D49DE
:1036F0009031206888422DD04A49A83120688842FC
:1037000028D049492068884224D047491831206888
:1037100088421FD044493031206888421AD042493B
:1037200048312068884215D03F496031206800E068
:1037300024E088420ED03C4978312068884209D084
:10374000394990312068884204D03749A83120682F
:10375000884204D12068006800F0020002E020687E
:103760000068002050B194F85C0000F01F010420B4
:103770008840B060606D40F00400606594F85C00C3
:1037800000F01F01102088403840E8B32549206828
:10379000884251D023491831206888424CD02149B1
:1037A00030312068884247D01E494831206888421D
:1037B00042D01C496031206888423DD01949783197
:1037C0002068884238D0174990312068884233D029
:1037D0001449A831206888422ED0134920688842B5
:1037E0002AD0114918312068884225D00E4930313D
:1037F0002068884220D00C494831206888421BD07C
:1038000009496031206800E04DE0884214D0064943
:103810007831206888420FD003499031206805E054
:103820000C0000201000024010040240884203D027
:10383000FE492068884204D12068006800F0080032
:1038400003E02068006800F0040060B394F85C00B6
:1038500000F01F0110208840B0602068006800F46C
:10386000802080B12068006800F4002028B9206C16
:10387000C8B12046216C884715E0A06C98B120465D
:10388000A16C88470FE02068006800F4807028B9B8
:103890002068006820F0080021680860206C10B1E2
:1038A0002046216C884794F85C0000F01F0120201E
:1038B0008840384000287DD0DD492068884249D0C2
:1038C000DB4918312068884244D0D949303120681A
:1038D00088423FD0D6494831206888423AD0D449FE
:1038E00060312068884235D0D149783120688842DB
:1038F00030D0CF499031206888422BD0CC49A831B4
:103900002068884226D0C949A8392068884221D039
:10391000C6499039206888421CD0C449783920684B
:10392000884217D0C14960392068884212D0BF4907
:103930004839206888420DD0BC4930392068884217
:1039400008D0BA4918392068884203D0B74920689E
:10395000884204D12068006800F0100003E020686D
:10396000006800F0020028B394F85C0000F01F012A
:1039700020208840B06094F8350004282DD12068BC
:10398000006820F01600216808602068406920F077
:10399000800021684861206C08B9A06C28B12068BB
:1039A000006820F008002168086094F85C0000F0CE
:1039B0001F0100E03FE03F208840B060012084F814
:1039C000350000BF002084F8340000BF206D10B126
:1039D0002046216D8847BDE8F88F2068006800F414
:1039E000802080B12068006800F4002028B9606C55
:1039F00008B32046616C88471DE0E06BD8B12046D3
:103A0000E16B884717E02068006800F4807068B9AF
:103A10002068006820F0100021680860012084F808
:103A2000350000BF002084F8340000BFE06B10B107
:103A30002046E16B8847606D00287AD0606D00F009
:103A40000100E8B3042084F83500794920688842F1
:103A50004BD0774918312068884246D074493031BC
:103A60002068884241D072494831206888423CD061
:103A70006F4960312068884237D06D4978312068BD
:103A8000884232D06A499031206888422DD06849F6
:103A9000A8312068884228D06449A8392068884223
:103AA00023D062499039206888421ED05F49783916
:103AB0002068884219D05D4960392068884200E05A
:103AC00040E012D059494839206888420DD0574902
:103AD00030392068884208D0544918392068884213
:103AE00003D052492068884206D12068006820F03F
:103AF00001002168086005E02068006820F00100EE
:103B00002168086000BF0098401C0090504500D913
:103B100005E02068006800F001000028F3D100BF34
:103B20002068006800F0010020B1032084F835000F
:103B300003E00DE0012084F8350000BF002084F888
:103B4000340000BFE06C002802D02046E16C8847BA
:103B5000D9E138492068884222D03649143120689A
:103B600088421DD0334928312068884218D0314915
:103B70003C312068884213D02E4950312068884259
:103B80000ED02C4964312068884209D02949783107
:103B90002068884204D027498C312068884201D1AE
:103BA000012000E000200028D2D02068056894F8A9
:103BB0005C0000F01F010420884000EA0900D8B32F
:103BC00005F00400C0B394F85C0000F01F0104206D
:103BD0008840C8F8040005F4004080B105F4803046
:103BE00030B9A06C0028B3D02046A16C88478AE188
:103BF000206C0028ACD02046216C884783E105F07A
:103C00002000E8BB0A492068884253D0084918318F
:103C1000206888424ED0064930312068884249D019
:103C2000034948312068884244D006E0B804024085
:103C300010000240085402584FE0B4496031206837
:103C4000884237D0B14978312068884232D0AF49B4
:103C50009031206888422DD0AC49A8312068884234
:103C600028D0AB492068884224D0A949183120685F
:103C700088421FD0A6493031206888421AD000E01F
:103C800025E0A34948312068884213D0A04960311B
:103C9000206888420ED09E4978312068884209D039
:103CA0009B4990312068884204D09949A831206806
:103CB000884206D12068006820F00800216808606A
:103CC00005E02068006820F0040021680860206C8E
:103CD00010B32046216C884715E194F85C0000F091
:103CE0001F010220884000EA0900E8B305F0020045
:103CF000D0B394F85C0000F01F0102208840C8F89F
:103D0000040005F4004070B105F4803028B9606CFF
:103D100010B12046616C8847F5E0E06BF0B32046B7
:103D2000E16B8847EFE005F02000C0BB77492068D1
:103D300088424ED0754918312068884249D073496D
:103D400030312068884244D0704948312068884228
:103D50003FD06E496031206888423AD06B49783153
:103D60002068884235D000E04EE0684990312068F4
:103D700088422ED06549A8312068884229D06449FC
:103D80002068884225D0624918312068884220D0B6
:103D90005F493031206888421BD001E06EE02DE0A1
:103DA0005B4948312068884213D059496031206806
:103DB00088420ED0564978312068884209D054494B
:103DC00090312068884204D05149A8312068884247
:103DD00006D12068006820F014002168086005E022
:103DE0002068006820F00A0021680860012084F83B
:103DF000350000BF002084F8340000BFE06BE8B35A
:103E00002046E16B88477EE094F85C0000F01F01DB
:103E10000820884000EA090080B305F0080068B374
:103E20003A49206888424BD0384918312068884286
:103E300046D0364930312068884241D03349483134
:103E4000206888423CD0314960312068884237D0B0
:103E50002E4978312068884232D02C499031206830
:103E600088422DD02949A8312068884228D0284985
:103E70002068884224D02649183100E043E02068B9
:103E800088421DD0224930312068884218D020490C
:103E900048312068884213D01D496031206888422B
:103EA0000ED01B4978312068884209D018499031DA
:103EB0002068884204D01649A8312068884206D17B
:103EC0002068006820F01C002168086005E0206878
:103ED000006820F00E002168086094F85C0000F093
:103EE0001F0101208840C8F804000120606584F8A3
:103EF000350000BF002084F8340000BFE06C10B132
:103F00002046E16C884700BF65E5000010000240D4
:103F1000100402402DE9F041044600F07FFE804687
:103F200014B90120BDE8F081FE492068884249D0DB
:103F3000FC4918312068884244D0FA493031206861
:103F400088423FD0F7494831206888423AD0F54945
:103F500060312068884235D0F24978312068884243
:103F600030D0F0499031206888422BD0ED49A831FB
:103F70002068884226D0EC492068884222D0EA494D
:103F80001831206888421DD0E749303120688842C6
:103F900018D0E54948312068884213D0E2496031A1
:103FA000206888420ED0E04978312068884209D0E4
:103FB000DD4990312068884204D0DB49A83120686F
:103FC000884201D1012000E00020002873D0606AFF
:103FD00000B100BF022084F8350000BF002084F843
:103FE000340000BFCF492068884249D0CD491831FC
:103FF0002068884244D0CB493031206888423FD085
:10400000C8494831206888423AD0C64960312068A2
:10401000884235D0C34978312068884230D0C149C0
:104020009031206888422BD0BE49A8312068884250
:1040300026D0BD492068884222D0BB49183120686B
:1040400088421DD0B84930312068884218D0B6491E
:1040500048312068884213D0B349603120688842D3
:104060000ED0B14978312068884209D0AE499031EC
:104070002068884204D0AC49A8312068884206D123
:104080002068006820F001002168086005E02068D1
:10409000006820F00100216808600DE000F0BEFD1E
:1040A000A0EB0800052807D920206065032084F8CC
:1040B0003500012036E769E02068006800F0010063
:1040C0000028EBD12068056898480540D4E9020132
:1040D00008432169084361690843A1690843E1690C
:1040E0000843216A08430543606A042803D1D4E9E0
:1040F0000B01084305436068292802D360682E2815
:1041000017D960683F2802D36068422811D96068D7
:10411000472802D3606848280BD960684F2802D32B
:104120006068522805D96068742804D360687728CD
:1041300001D8012000E0002008B145F48015206876
:1041400005602068456925F00705606A0543606AD7
:1041500004280DD1A06A0543E06A48B12046FEF765
:10416000E7F928B140206065012084F83500D9E6E0
:10417000206845612046FEF7B7F8064694F85C00D3
:1041800000F01F013F208840B0609EE06849206831
:10419000884222D066491431206888421DD0644983
:1041A00028312068884218D061493C312068884213
:1041B00013D05F495031206888420ED05C49643189
:1041C0002068884209D05A4978312068884204D052
:1041D00057498C312068884201D1012000E000203D
:1041E000E0B353492068884222D0514914312068F5
:1041F00088421DD04E4928312068884218D04C4949
:104200003C312068884213D04949503120688842A7
:104210000ED0474964312068884209D0444978313A
:104220002068884204D042498C312068884201D1FC
:10423000012000E0002000B100BF022084F835001A
:1042400000BF002084F8340000BF206805683948AA
:104250000540A068402802D1102106E02EE0A068A9
:10426000802801D1C10100E00021E06841EAD001CD
:10427000206941EAD001606941EAD001A06941EAC0
:10428000D001E06941EAD001206A41EA10100543FB
:104290002068056026492068401A1421B0FBF1F01F
:1042A0008000E0652046FEF71FF8074694F85C00A2
:1042B00000F01F0101208840786006E04020606522
:1042C000032084F8350001202CE616492068884236
:1042D0007AD0144918312068884275D0114930319C
:1042E0002068884270D00F494831206888426BD0DE
:1042F0000C4960312068884266D00A4978312068CC
:10430000884261D007499031206888425CD00549D5
:10431000A8312068884257D003492068884253D08A
:10432000014909E010000240100402403F8010FEE5
:10433000085402580F00FEFF18312068884243D00D
:104340003749206888423FD0354918312068884273
:104350003AD0334930312068884235D0304948312D
:104360002068884230D02E496031206888422BD0A6
:104370002B4978312068884226D02A492068884213
:1043800022D028491431206888421DD0254928317F
:104390002068884218D023493C312068884213D0D5
:1043A00020495031206888420ED01E49643120686F
:1043B000884209D01B4978312068884204D01949C5
:1043C0008C312068884201D1012000E0002000B338
:1043D0002046FDF7FFFFA068802801D10020606023
:1043E0002079216E0860D4E919104860606860B1D6
:1043F0006068082809D82046FEF74EF80020E16ED4
:104400000860D4E91C10486003E00020E0662067E3
:10441000606700206065012084F83500002081E598
:1044200040040240085402582DE9F04104460D466C
:1044300016461F464FF0000814B90120BDE8F08170
:1044400000BF94F83400012801D10220F6E70120D2
:1044500084F8340000BF94F8350001287ED1022092
:1044600084F8350000206065E4492068884249D01E
:10447000E24918312068884244D0E0493031206850
:1044800088423FD0DD494831206888423AD0DB4934
:1044900060312068884235D0D84978312068884218
:1044A00030D0D6499031206888422BD0D349A831EA
:1044B0002068884226D0D2492068884222D0D0493C
:1044C0001831206888421DD0CD493031206888429B
:1044D00018D0CB4948312068884213D0C849603190
:1044E000206888420ED0C64978312068884209D0B9
:1044F000C34990312068884204D0C149A83120685E
:10450000884206D12068006820F001002168086018
:1045100005E02068006820F00100216808603B4643
:10452000324629462046FEF75BF8B44920688842A7
:104530004BD0B24918312068884246D0AF4930315B
:104540002068884241D0AD494831206888423CD03B
:10455000AA4960312068884237D000E042E1A7498B
:1045600078312068884230D0A44990312068884250
:104570002BD0A249A8312068884226D0A0492068C3
:10458000884222D09E491831206888421DD09C491B
:1045900030312068884218D09949483120688842D3
:1045A00013D097496031206888420ED09449783101
:1045B0002068884209D0924990312068884204D00E
:1045C0008F49A8312068884201D1012000E00020F5
:1045D00080B12068006820F01E0040F016002168BD
:1045E0000860206CB0B12068006840F008002168C5
:1045F00008600FE02068006820F00E0040F00A001C
:1046000021680860206C28B12068006840F0040030
:104610002168086079492068884270D0774918314C
:10462000206888426BD0754930312068884266D056
:10463000724948312068884261D0704960312068F1
:1046400088425CD06D4978312068884257D06B49E8
:1046500090312068884252D06849A8312068884249
:104660004DD067492068884249D065491831206893
:10467000884244D062493031206888423FD0604946
:104680004831206888423AD05D49603120688842CC
:1046900035D05B4978312068884230D05849903114
:1046A000206888422BD05649A8312068884226D0FD
:1046B00054492068884222D05249143120688842E7
:1046C0001DD0504928312068884218D04D493C31CE
:1046D0002068884213D04B495031206888420ED060
:1046E000484964312068884209D0464978312068B9
:1046F000884204D043498C312068884201D101208E
:1047000000E0002090B1206E006800F4803028B1F5
:10471000206E006840F48070216E0860E06E28B161
:10472000E06E006840F48070E16E086033492068F4
:10473000884249D0314918312068884244D02F49F5
:104740003031206888423FD02C4948312068884267
:104750003AD02A4960312068884235D027497831DB
:104760002068884230D025499031206888422BD07B
:104770002249A8312068884226D0214920688842F1
:1047800022D01F491831206888421DD01C49303181
:104790002068884218D01A4948312068884213D0CE
:1047A00017496031206888420ED015497831206859
:1047B000884209D0124990312068884204D01049BB
:1047C000A8312068884206D12068006840F00100C6
:1047D0002168086010E02068006840F0010021684E
:1047E000086009E04FF40060606500BF002084F8B5
:1047F000340000BF4FF0010840461FE610000240A1
:1048000010040240085402582DE9F04104460E46B7
:10481000002700BF2F48007D012802D10220BDE8FB
:10482000F08101202B49087500BF002088612079A4
:1048300000F0010030B101214CF25030FEF74EF88B
:1048400000B10127002F3DD12068012815D16168F2
:104850002069FEF72DF8207900F0010090B30121C6
:104860004CF25030FEF73AF800B101271A48C06800
:1048700020F008001849C86024E04FF0FF30306095
:10488000A56819E0284622696168FDF7F9FF2079DB
:1048900000F0010060B101214CF25030FEF71EF82B
:1048A00007460D48C06840F2047188430A49C86051
:1048B0000FB1356005E06D1CD4E902100844A84230
:1048C000E0D800BF00BF00200249087500BF38468D
:1048D000A5E7000058040020002000520748C068E7
:1048E00040F001000549C8600846C06800F00100BA
:1048F00008B9012070470020FCE7000000200052AA
:104900002DE9F05F83460C4616462746B0464FF029
:10491000080A00BF3348007D012802D10220BDE80B
:10492000F09F01202F49087500BFB4F1006F04D338
:10493000B4F1016F01D2814601E00120EFE70020D0
:104940002849886149464CF25030FDF7C7FF0546BB
:10495000F5BB2548C06840F002002349C86000BF8D
:1049600000BF00BFBFF36F8F00BF00BF00BF00BF1D
:1049700000BF00BFBFF34F8F00BF00BF00BF00BF2D
:10498000D8F8000038603F1D08F10408AAF10100C2
:1049900000F0FF0ABAF1000FF2D100BF00BF00BF64
:1049A000BFF36F8F00BF00BF00BF00BF00BF00BFDD
:1049B000BFF34F8F00BF00BF00BF49464CF25030DD
:1049C000FDF78CFF05460848C06820F0020000E0B3
:1049D00001E00549C86000BF00200249087500BF1A
:1049E00028469CE758040020002000520948C0686F
:1049F00000F0010058B1084806494860074848607F
:104A00000846C06800F0010008B10120704700208E
:104A1000FCE700000020005223016745AB89EFCD81
:104A2000F8B502460B4600216D4DD2E001278F40BC
:104A30001E6806EA0704002C72D01E7906F00306F1
:104A4000012E04D01E7906F00306022E13D19068C1
:104A50004F000326BE40B0434F00DE68BE403043E7
:104A60009060506801268E40B0431E79C6F3001650
:104A70008E40304350601E7906F00306032E09D0A5
:104A8000D0684F000326BE40B0434F009E68BE4032
:104A90003043D0601E7906F00306022E13D1CF08F2
:104AA00002F1200656F827004E07F70E0F26BE40EB
:104AB000B0434F07FF0E1E69BE403043CF0802F1DE
:104AC000200646F8270010684F000326BE40B0437A
:104AD0001E7906F003064F00BE40304310605E684A
:104AE00006F44036002E73D000BF3E4E366846F0C6
:104AF00002063C4F3E603E46366806F002060096CF
:104B000000BF00BF384E8F0856F827008E07370FBA
:104B10000F26BE40B043354EB24202D1002629E0F6
:104B200056E0334EB24201D1012623E0314EB2426B
:104B300001D102261EE0304EB24201D1032619E017
:104B40002E4EB24201D1042614E02D4EB24201D1C4
:104B500005260FE02B4EB24201D106260AE02A4E6E
:104B6000B24201D1072605E0284EB24201D1092602
:104B700000E00A268F073F0FBE4030431A4E8F08D1
:104B800046F827004FF0B0463068A0435E6806F450
:104B9000801606B120434FF0B04630607068A043E5
:104BA0005E6806F4001606B120434FF0B046706010
:104BB0006868A0435E6806F4003606B1204368606A
:104BC0002868A0435E6806F4803606B1204328605A
:104BD000491C1E68CE40002E7FF428AFF8BD0000AF
:104BE00080000058F444025808040058000002589D
:104BF0000004025800080258000C02580010025825
:104C00000014025800180258001C025800240258D0
:104C10000AB1816101E00B048361704701480068BB
:104C2000704700000000002003480068034909782D
:104C30000844014908607047000000200800002077
:104C400010B5032000F0BCF801F07EFB10490968A4
:104C5000C1F303210F4A515C01F01F0120FA01F456
:104C60000B48006800F00F001146085C00F01F00C0
:104C700024FA00F008490860084804600F2000F09A
:104C80000FF808B1012010BD00F036F80020FAE757
:104C90001844025874C00208100000200C000020C4
:104CA00070B504461148007808B9012070BD0F485E
:104CB00000784FF47A71B1FBF0F00D490968B1FB4F
:104CC000F0F5284602F07CFD08B10120EEE7102C3B
:104CD00007D200222146501E00F034F80548046037
:104CE00001E00120E2E70020E0E7000008000020EA
:104CF0000C0000200400002008B500BF0648006832
:104D000040F00200044908600846006800F0020014
:104D1000009000BF00BF08BDF44402580146084699
:104D200000280DDB00BF00BF00F01F0301229A40E6
:104D300043099B0003F1E023C3F8002100BF00BF3B
:104D400000BF70472DE9F05F80460D46164605F01E
:104D500005FF074639462A46334601F00700C0F1F1
:104D6000070ABAF1040F02D94FF0040A01E0C0F1BA
:104D7000070AD14600F1040ABAF1070F02D24FF038
:104D8000000A01E0A0F1030AD4464FF0010A0AFA32
:104D900009FAAAF1010A0AEA020A0AFA0CFA4FF021
:104DA000010B0BFA0CFBABF1010B0BEA030B4AEA0C
:104DB0000B042146404605F0D9FEBDE8F09F0000F7
:104DC00000BF00F00702064B19684FF6FF031940B9
:104DD000044B0B4343EA0221014B196000BF7047AB
:104DE0000CED00E00000FA0570B5044615480068B7
:104DF000C0F3800048B91348006800F00700A042E3
:104E000001D0012070BD0020FCE70E48006820F0B2
:104E1000070020430B490860FFF700FF054607E045
:104E2000FFF7FCFE401BB0F57A7F01D90120E9E7CE
:104E3000044808380068C0F340300028F0D0002053
:104E4000E0E700000C48025810B501F033FA0549BC
:104E50000968C1F30211044A515C01F01F01C84006
:104E600010BD00002044025874C0020870B501460D
:104E7000844D2D6805F00303824D2D68C5F3053080
:104E8000804D2D1D2D68C5F300147E4D14352D6801
:104E9000C5F3CC0515FB04F501EE105AB8EE411A26
:104EA000F0EE410A00286FD023B1012B4ED0022B27
:104EB0006BD16BE0734D283D2D68C5F340153DB3B4
:104EC000704D283D2D68C5F3C1066F4D25FA06F2D9
:104ED00001EE102AF8EE411A01EE100AB8EE411A5E
:104EE00081EE812A9FED691AC0EE811A654D103559
:104EF0002D68C5F3080501EE105AB8EE411A31EEDF
:104F0000811AF7EE001A31EE211A22EE010A1CE096
:104F100001EE100AB8EE411ADFED5D1A81EE812A2A
:104F20009FED5A1AC0EE811A564D10352D68C5F303
:104F3000080501EE105AB8EE411A31EE811AF7EE6B
:104F4000001A31EE211A22EE010A5BE001EE100A8E
:104F5000B8EE411ADFED4F1A81EE812A9FED4B1A10
:104F6000C0EE811A474D10352D68C5F3080501EED6
:104F7000105AB8EE411A31EE811AF7EE001A31EEEE
:104F8000211A22EE010A3DE077E01DE001EE100A51
:104F9000B8EE411A9FED402AC2EE011A9FED3B1A6E
:104FA00080EE812A374D10352D68C5F3080501EED6
:104FB000105AB8EE411A32EE011AB7EE002A31EE5D
:104FC000021A21EE810A1DE001EE100AB8EE411A24
:104FD000DFED301A81EE812A9FED2C1AC0EE811A86
:104FE000284D10352D68C5F3080501EE105AB8EEAE
:104FF000411A31EE811AF7EE001A31EE211A22EE33
:10500000010A00BF00BF1F4D10352D68C5F34625AE
:1050100001EE105AB8EE411AF7EE001A31EE211ADD
:10502000C0EE011ABCEEE11A81ED001A154D1035E3
:105030002D68C5F3064501EE105AB8EE411AF7EE99
:10504000001A31EE211AC0EE011ABCEEE11A81ED10
:10505000011A0C4D10352D68C5F3066501EE105A86
:10506000B8EE411AF7EE001A31EE211AC0EE011A1D
:10507000BCEEE11A81ED021A03E000250D604D60DF
:105080008D6070BD284402580090D0030000004697
:105090000024744C0024744A20BCBE4B70B50146F9
:1050A000844D2D6805F00303824D2D68C5F305502E
:1050B000804D2D1D2D68C5F300247E4D1C352D68B7
:1050C000C5F3CC0515FB04F501EE105AB8EE411AF4
:1050D000F0EE410A00286FD023B1012B4ED0022BF5
:1050E0006BD16BE0734D283D2D68C5F340153DB382
:1050F000704D283D2D68C5F3C1066F4D25FA06F2A7
:1051000001EE102AF8EE411A01EE100AB8EE411A2B
:1051100081EE812A9FED691AC0EE811A654D18351E
:105120002D68C5F3080501EE105AB8EE411A31EEAC
:10513000811AF7EE001A31EE211A22EE010A1CE064
:1051400001EE100AB8EE411ADFED5D1A81EE812AF8
:105150009FED5A1AC0EE811A564D18352D68C5F3C9
:10516000080501EE105AB8EE411A31EE811AF7EE39
:10517000001A31EE211A22EE010A5BE001EE100A5C
:10518000B8EE411ADFED4F1A81EE812A9FED4B1ADE
:10519000C0EE811A474D18352D68C5F3080501EE9C
:1051A000105AB8EE411A31EE811AF7EE001A31EEBC
:1051B000211A22EE010A3DE077E01DE001EE100A1F
:1051C000B8EE411A9FED402AC2EE011A9FED3B1A3C
:1051D00080EE812A374D18352D68C5F3080501EE9C
:1051E000105AB8EE411A32EE011AB7EE002A31EE2B
:1051F000021A21EE810A1DE001EE100AB8EE411AF2
:10520000DFED301A81EE812A9FED2C1AC0EE811A53
:10521000284D18352D68C5F3080501EE105AB8EE73
:10522000411A31EE811AF7EE001A31EE211A22EE00
:10523000010A00BF00BF1F4D18352D68C5F3462574
:1052400001EE105AB8EE411AF7EE001A31EE211AAB
:10525000C0EE011ABCEEE11A81ED001A154D1835A9
:105260002D68C5F3064501EE105AB8EE411AF7EE67
:10527000001A31EE211AC0EE011ABCEEE11A81EDDE
:10528000011A0C4D18352D68C5F3066501EE105A4C
:10529000B8EE411AF7EE001A31EE211AC0EE011AEB
:1052A000BCEEE11A81ED021A03E000250D604D60AD
:1052B0008D6070BD284402580090D0030000004665
:1052C0000024744C0024744A20BCBE4B2DE9F041EC
:1052D00004460025A8464FF00062D4E900101140B2
:1052E0000020134659404040014331D1606E48B11F
:1052F000B0F5801F0DD0B0F5001F11D0B0F5401FE4
:1053000016D114E0FE48006840F40030FC49086003
:1053100010E0022104F1080003F05EFE054609E0FA
:10532000022104F1280003F009FF054602E001E034
:10533000012500BF00BF55B9F1482430006820F4B2
:105340004010616E0843EE492431086000E0A84631
:105350004FF48072D4E900101140002013465940E8
:10536000404001432ED1A06D05281BD2DFE800F09C
:10537000030A11181900E248006840F40030E049BF
:10538000086011E0002104F1080003F025FE054645
:105390000AE0002104F1280003F0D0FE054603E0F6
:1053A00002E001E0012500BF00BF55B9D448243018
:1053B000006820F00700A16D0843D149243108603E
:1053C00000E0A8464FF48062D4E9001011400020AC
:1053D00013465940404001433DD1D4F8A400B0F5F4
:1053E000C00F24D007DC68B1B0F5001F11D0B0F5B4
:1053F000800F1FD114E0B0F5000F19D0B0F5200FC9
:1054000018D116E0BE48006840F40030BC4908607E
:1054100012E0002104F1080003F0DEFD05460BE078
:10542000002104F1280003F089FE054604E003E0B2
:1054300002E001E0012500BF00BF5DB9B0482C309B
:10544000006820F46000D4F8A4100843AC492C3163
:10545000086000E0A8464FF40062D4E90001104063
:10546000002113465840494008433DD1D4F8A800D4
:10547000B0F1407F24D007DC68B1B0F1807F11D05B
:10548000B0F1007F1FD114E0B0F1806F19D0B0F1FE
:10549000A06F18D116E09A48006840F4003098498F
:1054A000086012E0002104F1080003F095FD0546B4
:1054B0000BE0002104F1280003F040FE054604E063
:1054C00003E002E001E0012500BF00BF5DB98C48A8
:1054D0002C30006820F0E060D4F8A8100843884918
:1054E0002C31086000E0A8464FF00073D4E90010AA
:1054F0001940002059404040014328D1E06CA8B138
:10550000102804D0202809D0302810D10DE07C4884
:10551000006840F400307A4908600AE0022104F192
:10552000080003F059FD054603E002E001E0012513
:1055300000BF00BF55B972482030006820F030002D
:10554000E16C08436E492031086000E0A8464FF442
:105550008053D4E9001019400020594040400143D5
:1055600037D1E06DB0F5005F1AD004DC50B1B0F572
:10557000805F1ED10DE0B0F5405F18D0B0F5804FD0
:1055800017D115E05E48006840F400305C490860BF
:1055900011E0002104F1080003F01EFD05460AE0B9
:1055A000002104F1280003F0C9FD054603E002E0F4
:1055B00001E0012500BF00BF55B951482430006803
:1055C00020F4E040E16D08434D492431086000E0DB
:1055D000A8464FF40053D4E9001019400020594068
:1055E0004040014335D1206EB0F5403F1ED007DC6E
:1055F00068B1B0F5803F0BD0B0F5003F19D10EE097
:10560000B0F5802F13D0B0F5A02F12D110E012E02A
:10561000012104F1080003F0DFFC05460BE0012145
:1056200004F1280003F08AFD054604E003E002E0EF
:1056300001E0012500BF00BF55B9314824300068A2
:1056400020F4E020216E08432D492431086000E059
:10565000A8464FF48042D4E90001104000211346CF
:1056600058404940084337D1D4F8AC00B0F1405F0E
:105670001ED007DC68B1B0F1805F0BD0B0F1005FE5
:1056800019D10EE0B0F1804F13D0B0F1A04F12D17C
:1056900010E012E0012104F1080003F09DFC054632
:1056A0000BE0012104F1280003F048FD054604E069
:1056B00003E002E001E0012500BF00BF5DB9104832
:1056C0002C30006820F0E040D4F8AC1008430C49BE
:1056D0002C31086000E0A8464FF40043D4E90001F3
:1056E000184000215840494008432AD1E06EB8B123
:1056F000B0F1805F06D0B0F1005F12D109E0000088
:105700002C440258F948006840F40030F74908601A
:1057100009E0012104F1080003F05EFC054602E007
:1057200001E0012500BF00BF55B9F04824300068F2
:1057300020F04050E16E0843EC492431086000E05D
:10574000A8464FF08073D4E900101940002059405A
:105750004040014328D1A06CA8B1012804D0022800
:1057600009D0032810D10DE0E048006840F4003073
:10577000DE4908600AE0022104F1080003F02CFC75
:10578000054603E002E001E0012500BF00BF55B976
:10579000D6482030006820F00300A16C0843D349AC
:1057A0002031086000E0A8464FF48003D4E90010DF
:1057B000194000205940404001437DD1CC48006849
:1057C00040F48070CA490860FFF728FA064606E0F0
:1057D000FFF724FA801B642801D9032505E0C4489B
:1057E000006800F480700028F2D000BF85BBBF487D
:1057F0004430006800F44070B4F8B01001F4407117
:10580000884213D0B9484430006820F44077B74844
:105810004430006840F48030B449443108600846A0
:10582000006820F48030086008460760D4F8B000B3
:10583000B0F5807F15D1FFF7F1F9064609E0FFF7D3
:10584000EDF9801B41F28831884202D9032507E037
:1058500038E0A64844300068C0F340000028EED08D
:1058600000BF55BB00BFB4F8B00000F44070B0F505
:10587000407F0ED19D481C38006820F47C519D4A21
:10588000D4F8B000104041EA101098491C39086063
:1058900007E096481C38006820F47C5093491C3976
:1058A0000860924844300068B4F8B010C1F30B01AE
:1058B00008438E49443101E005E001E0086002E060
:1058C000A84600E0A8460122D4E9000110400021CA
:1058D000134658404940084330D1A06F18281AD0C9
:1058E00005DC48B1082808D0102817D10CE0202882
:1058F00012D0282812D110E012E0012104F1080092
:1059000003F06AFB05460BE0012104F1280003F0D7
:1059100015FC054604E003E002E001E0012500BFBC
:1059200000BF55B971482830006820F03800A16FD9
:1059300008436E492831086000E0A8460223D4E9F4
:1059400000101940002059404040014329D1606FA8
:10595000062816D2DFE800F003040B12131412E03D
:10596000012104F1080003F037FB05460BE001219B
:1059700004F1280003F0E2FB054604E003E002E046
:1059800001E0012500BF00BF55B958482830006824
:1059900020F00700616F084354492831086000E097
:1059A000A8460422D4E900101140002013465940B3
:1059B000404001432BD1D4F89000062816D2DFE8EE
:1059C00000F003040B12131412E0012104F108008B
:1059D00003F002FB05460BE0012104F1280003F06F
:1059E000ADFB054604E003E002E001E0012500BF55
:1059F00000BF5DB93D482C30006820F00700D4F8A6
:105A00009010084339492C31086000E0A846202353
:105A1000D4E900011840002158404940084337D1DB
:105A2000D4F88C00B0F1405F1ED007DC68B1B0F153
:105A3000805F0BD0B0F1005F19D10EE0B0F1804F64
:105A400013D0B0F1A04F12D110E012E0002104F108
:105A5000080003F0C1FA05460BE0022104F128001A
:105A600003F06CFB054604E003E002E001E00125E1
:105A700000BF00BF5DB91D482830006820F0E0403D
:105A8000D4F88C10084319492831086000E0A84672
:105A90004023D4E900101940002059404040014300
:105AA0003CD1D4F89800B0F5406F25D007DC68B140
:105AB000B0F5806F0BD0B0F5006F20D10EE0B0F5DF
:105AC000805F1AD0B0F5A05F19D117E019E000216E
:105AD00004F1080003F080FA054612E0022104F107
